:100000000C9446000C945D000C945D000C945D0013
:100010000C945D000C945D000C945D000C945D00EC
:100020000C945D000C945D000C945D000C945D00DC
:100030000C945D000C945D000C945D000C945D00CC
:100040000C945D000C945D000C945D000C945D00BC
:100050000C945D000C945D000C945D000C945D00AC
:100060000C945D000C945D000C945D000C945D009C
:100070000C945D000C945D000C945D000C945D008C
:100080000C945D000C945D000C945D0011241FBE67
:10009000CFEFD0E4DEBFCDBF11E0A0E0B1E0EAE4F5
:1000A000F2E000E00BBF02C007900D92AE30B10746
:1000B000D9F70E9488000C9423010C940000CF9380
:1000C000DF9300D01F92CDB7DEB789837B836A832D
:1000D00089818A3031F48A819B81BC018DE00E9444
:1000E0005F0080EC90E0FC018081882F90E08072BE
:1000F00099270097B1F386EC90E02981FC012083D9
:1001000080E090E00F900F900F90DF91CF910895D5
:10011000CF93DF9300D0CDB7DEB781E290E0FC0152
:10012000108282E290E02FEFFC01208384E290E0D5
:10013000FC01108285E290E02FEFFC01208387E232
:1001400090E0FC01108288E290E02FEFFC01208318
:100150008AE290E02FEFFC0120838BE290E0FC012B
:1001600010821A82198280E290E0FC0180818D3831
:1001700020F089818160898313C083E290E0FC01D3
:1001800080818D3820F089818160898309C086E271
:1001900090E0FC0180818D3818F08981816089832D
:1001A00080E290E0FC01208186E290E0FC01808109
:1001B0008217B8F480E290E0FC018081282F30E0C3
:1001C00086E290E0FC018081882F90E0A901481B25
:1001D000590BCA0181359105D4F0898182608983E8
:1001E00016C086E290E0FC018081282F30E080E29A
:1001F00090E0FC018081882F90E0A901481B590BF9
:10020000CA01813591051CF089818260898380E271
:1002100090E0FC01208183E290E0FC018081280FC6
:1002200086E290E0FC018081820F8A838A818C7F44
:100230008A8399818A81892B89838BE290E0298145
:0A024000FC0120838ECFF894FFCF5D
:0E024A0000000002000000005F000000000045
:00000001FF
